:020000040800F2
:1000000020E101209D010008752C0008772C0008D4
:100010007B2C00087F2C0008832C000800000000C7
:10002000000000000000000000000000872C000815
:10003000892C0008000000008B2C00085F280008B5
:10004000B7010008B7010008B7010008B7010008B0
:10005000B7010008B70100087D300008B7010008AB
:10006000B7010008B7010008B7010008B701000890
:10007000B7010008B7010008B7010008B701000880
:10008000B7010008C7220008B7010008B70100083F
:10009000B7010008B7010008B7010008B701000860
:1000A000B7010008B7010008B7010008B701000850
:1000B000B7010008B7010008B7010008B701000840
:1000C000B7010008B7010008B7010008B701000830
:1000D000B70100084D240008BB250008B70100083F
:1000E000B7010008B70100081B300008B70100087D
:1000F000B7010008D9280008B7010008B7010008B7
:10010000B7010008B7010008B7010008B7010008EF
:10011000B7010008B7010008B7010008B7010008DF
:10012000B7010008B7010008B7010008B7010008CF
:10013000B7010008B7010008B7010008B7010008BF
:10014000B7010008B7010008B701000873300008C4
:10015000B7010008B7010008B7010008B70100089F
:10016000B7010008B7010008B7010008B70100088F
:10017000B7010008B7010008B7010008B70100087F
:10018000B7010008B7010008DFF80CD006F0AAFBA1
:1001900000480047B92B000820E1012006488047AD
:1001A00006480047FEE7FEE7FEE7FEE7FEE7FEE75C
:1001B000FEE7FEE7FEE7FEE7672D0008890100087D
:1001C00033490143334A1160704770B50021002361
:1001D0000F22C47824B32F4C246804F4E064C4F5DF
:1001E000E064C4F30721C1F10404E3B20A41447896
:1001F0009C40E1B28478144021430C07210E264C28
:1002000005786155047804F01F050124AC40057899
:100210006D114FF0E02606EB8505C5F8004109E0B9
:10022000047804F01F040125A5401C4C06787611C3
:1002300044F8265070BD1A4A0A400243154B1B1F52
:100240001A60704739B1134A121D12680243114BEC
:100250001B1D1A6006E00F4A121D126882430D4BE7
:100260001B1D1A607047042808D14FF0E02109696E
:1002700041F004014FF0E022116107E04FF0E0216E
:10028000096921F004014FF0E0221161704700007C
:100290000000FA050CED00E000E400E080E100E081
:1002A00080FFFF1F10B50446FA48844208D101219F
:1002B000102001F048FB0021102001F044FB57E022
:1002C000F548844209D10121480401F02BFB0021AB
:1002D0004FF4003001F026FB4AE0F048844209D197
:1002E0000121880401F01EFB00214FF4802001F061
:1002F00019FB3DE0EA48844209D10121C80401F01C
:1003000011FB00214FF4002001F00CFB30E0E54828
:10031000844209D10121080501F004FB00214FF4BA
:10032000801001F0FFFA23E0DF48844208D1012168
:10033000202001F008FB0021202001F004FB17E041
:10034000DA48844209D10121880701F0EBFA002143
:100350004FF0804001F0E6FA0AE0D548844207D128
:100360000121400501F0DEFA0021600501F0DAFA12
:1003700010BD2DE9FF4705460E460024A14600BFEB
:10038000A046B08900B100BF2C8A24F44054F08804
:1003900004432C82AC8941F20C608443B0883189DB
:1003A0000843718908430443AC81AC8A24F4407447
:1003B000B0890443AC82684601F045F9B5488542EE
:1003C00002D0B948854202D1DDF80C9001E0DDF899
:1003D0000890A88910F4004F08D009EBC90000EB81
:1003E000091031684900B0FBF1F707E009EBC900DB
:1003F00000EB091031688900B0FBF1F76420B7FB0E
:10040000F0F004012009642101FB1078A88910F4A0
:10041000004F08D0322000EBC800B0FBF1F000F034
:100420000700044308E0322000EB08106421B0FB11
:10043000F1F000F00F0004432C81BDE8FF874FF47A
:100440001651016000218180C18001810C21418110
:1004500000218181704710B502460020108A20F4E7
:1004600070600B884C8823438C882343CC882343BB
:100470001843108210BD0021018041808180C1801D
:10048000704721B1828942F40052828104E082895E
:100490004DF6FF731A4082817047028B02F47F424F
:1004A0000283028B0A430283704721B1828942F49E
:1004B0000042828103E08289C2F30E02828170478A
:1004C00021B1828A42F40062828204E0828A4FF281
:1004D000FF731A4082827047C1F30802828070471E
:1004E00001468888C0F308007047028A4FF6F0730F
:1004F0001A400282028A0A430282704721B182892D
:1005000042F00202828104E082894FF6FD731A40B4
:100510008281704782894FF2FF731A4082818289FB
:100520000A4382817047028A4FF6DF731A400282C3
:10053000028A0A430282704721B1028A42F4804251
:10054000028204E0028A4BF6FF731A40028270476F
:10055000818941F001018181704721B1828A42F095
:100560000802828204E0828A4FF6F7731A40828280
:100570007047028BD2B20283028B42EA01220283CD
:10058000704721B1828A42F02002828204E0828A8E
:100590004FF6DF731A408282704721B1828A42F09F
:1005A0001002828204E0828A4FF6EF731A40828240
:1005B0007047828A4FF6FB731A408282828A0A430E
:1005C0008282704721B1828A42F00202828204E074
:1005D000828A4FF6FD731A40828270471AB1838A6D
:1005E0000B43838202E0838A8B4383827047F0B59A
:1005F00003460024002600250020A1F510676A3F6D
:1006000000D100BF1846C1F3421401F01F060127B4
:1006100007FA06F5012C01D10C3004E0022C01D1BF
:10062000103000E014301AB107682F43076002E071
:100630000768AF430760F0BD02460020B1F5007FB8
:1006400000D100BF13880B4201D0012000E0002040
:10065000704701F40072B2F5007F00D100BFCA43B9
:100660000280704770B50246002400230025002058
:10067000A1F510666A3E00D100BFC1F3421501F03A
:100680001F03012606FA03F3012D13D19689334087
:1006900017E0000000100140004400400048004006
:1006A000004C004000500040001401400078004021
:1006B000007C0040022D02D1168A334001E0968A68
:1006C00033400C12012606FA04F41688344013B1A4
:1006D0000CB1012000E0002070BD10B50022002305
:1006E000A1F510646A3C00D100BF0A1201249440B5
:1006F000A3B2DC43048010BD10B50446FE4884421A
:1007000008D10121084601F01EF90021012001F065
:100710001AF99DE0B4F1804F08D10121084601F09B
:1007200001F90021012001F0FDF891E0F348844235
:1007300008D10121022001F0F5F80021022001F08A
:10074000F1F885E0EE48844208D10121042001F04F
:10075000E9F80021042001F0E5F879E0E948844255
:1007600008D10121082001F0DDF80021082001F066
:10077000D9F86DE0E448844208D10121102001F04D
:10078000D1F80021102001F0CDF861E0DF4884426B
:1007900008D10121202001F0C5F80021202001F01E
:1007A000C1F855E0DA48844208D10121022001F065
:1007B000CAF80021022001F0C6F849E0D548844279
:1007C00009D10121080401F0BEF800214FF4803066
:1007D00001F0B9F83CE0D048844209D10121480435
:1007E00001F0B1F800214FF4003001F0ACF82FE037
:1007F000CA48844209D10121880401F0A4F80021EB
:100800004FF4802001F09FF822E0C548844208D1CF
:100810000121402001F086F80021402001F082F8FB
:1008200016E0C048844208D10121802001F07AF806
:100830000021802001F076F80AE0BB48844207D10D
:100840000121801501F06EF80021A01501F06AF871
:1008500010BD00220288A84B98420ED0AC4B9842A3
:100860000BD0B0F1804F08D0A44B984205D0A44BD8
:10087000984202D0A34B984204D14FF68F731A408E
:100880004B881A43A04B984207D0A04B984204D003
:100890004FF6FF431A400B891A4302804B68C3622C
:1008A0000B880385944B984202D0994B984201D112
:1008B0008B7A03860123838270474FF0FF314160BA
:1008C000002101800181418081727047018582820F
:1008D00070470A46002101884FF68F731940114373
:1008E0000180704741627047C16270470146486AA3
:1008F00070470146088D704721B1028842F002021C
:10090000028004E002884FF6FD731A4002807047AF
:1009100021B1028842F00402028004E002884FF60E
:10092000FB731A400280704721B1028842F08002B6
:10093000028004E002884FF67F731A4002807047FD
:1009400002884FF6F7731A40028002880A43028039
:10095000704702884FF6FF431A40028002880A431C
:100960000280704721B1028842F00102028004E057
:1009700002884FF6FE731A400280704770B500245B
:1009800000220023058C4FF6FE7635400584028C4C
:100990008388048B4FF68F752C40B51E2C400D8834
:1009A0002C43751E2A408D892A434D882A43524D77
:1009B000A84202D0564DA84213D14FF6F7752A40EF
:1009C000CD892A434FF6FB752A408D882A434FF67E
:1009D000FF652B404FF6FF552B400D8A2B434D8A68
:1009E0002B43838004838D684563028470BD70B59A
:1009F000002400220023058C4FF6EF763540058455
:100A0000028C8388048B48F6FF752C404FF6FF4517
:100A10002C400D884FF6FF7606EA05252C434FF64D
:100A2000DF752A408D8906EA05152A434D8806EAB6
:100A300005152A43304DA84202D0354DA8421DD19C
:100A40004FF67F752A40CD894FF6FF7606EA0515E9
:100A50002A434FF6BF752A408D8806EA05152A43BA
:100A60004FF6FF352B404FF2FF752B400D8A06EAFB
:100A700085052B434D8A06EA85052B438380048335
:100A80008D688563028470BD70B500240022002348
:100A9000058C4FF6FF6635400584028C8388848B75
:100AA0004FF68F752C404FF6FC752C400D882C436B
:100AB0004FF6FF552A408D894FF6FF7606EA052549
:100AC0002A434D8806EA05252A430B4DA84202D049
:100AD0000F4DA84238D14FF2FF752A40CD894FF60D
:100AE000FF7606EA05252A434FF6FF352A408D8812
:100AF00006EA05252A4319E00000014000040040F1
:100B000000080040000C00400010004000140040AD
:100B10000004014000400140004401400048014001
:100B200000180040001C0040002000404EF6FF75F9
:100B30002B404DF6FF752B400D8A06EA05152B4319
:100B40004D8A06EA05152B43838084838D68C5632F
:100B5000028470BD70B5002200230024058C4EF67F
:100B6000FF7635400584038C8488828B48F6FF75B8
:100B70002A404FF6FF452A400D884FF6FF7606EAD9
:100B800005252A434DF6FF752B408D8906EA05356C
:100B90002B434D8806EA05352B43FE4DA84202D073
:100BA000FD4DA84208D14BF6FF752C400D8A4FF63B
:100BB000FF7606EA85152C43848082838D68056460
:100BC000038470BD0021018041808180816081812A
:100BD000C18101824182704770B503460020002424
:100BE0001846183001258D40ACB21D8CA5431D84DC
:100BF00009B108290AD100EB610005684FF68F762C
:100C0000354005600568154305600FE00D1FC5F30D
:100C10004E052844056848F6FF76354005600568AE
:100C20004FF6FF7606EA02263543056070BD416344
:100C3000704781637047C1637047016470470A461B
:100C40000021018B4FF68F731940114301837047C8
:100C50000A460021018B48F6FF7319404FF6FF73D7
:100C600003EA02231943018370470A460021818B5E
:100C70004FF68F7319401143818370470A46002154
:100C8000818B48F6FF7319404FF6FF7303EA022386
:100C90001943818370470A460021018B4FF6F77391
:100CA00019401143018370470A460021018B4FF21E
:100CB000FF7319404FF6FF7303EA022319430183C0
:100CC00070470A460021818B4FF6F7731940114394
:100CD000818370470A460021818B4FF2FF731940D0
:100CE0004FF6FF7303EA02231943818370470A46D4
:100CF0000021018B4FF6FB731940114301837047AC
:100D00000A460021018B4FF6FF3319404FF6FF735F
:100D100003EA02231943018370470A460021818BAD
:100D20004FF6FB7319401143818370470A46002137
:100D3000818B4FF6FF3319404FF6FF7303EA02230E
:100D40001943818370470A460021018B4FF67F7358
:100D500019401143018370470A460021018BC1F3FA
:100D60000E014FF6FF7303EA022319430183704714
:100D70000A460021818B4FF67F731940114381830E
:100D800070470A460021818BC1F30E014FF6FF73B5
:100D900003EA02231943818370470A460021018C2C
:100DA0004FF6FD7319401143018470470A46002134
:100DB000018C4FF6F77319401143018470470A46BE
:100DC0000021018C4FF6DF7319404FF6FF7303EAE1
:100DD00002131943018470470A460021018C4FF623
:100DE0007F7319404FF6FF7303EA0213194301841E
:100DF00070470A460021018C4FF6FF5319404FF609
:100E0000FF7303EA02231943018470470A46002155
:100E1000018C4FF2FF7319404FF6FF7303EA022370
:100E20001943018470470A460021018C4DF6FF7377
:100E300019404FF6FF7303EA0233194301847047E8
:100E400030B5002301248C40A3B2048C9C4304845D
:100E5000048C02FA01F5ADB22C43048430BD30B5E8
:100E6000002304248C40A3B2048C9C430484048C8F
:100E700002FA01F5ADB22C43048430BD828B4FF2EF
:100E8000FF331A408283828B4FF6FF7303EA0123FC
:100E90001A4382837047F0B50C46154600210022A4
:100EA0000026078C4EF6FF7C07EA0C070784818B2F
:100EB000028C4FF6FF7707EA043640F6FF473940C9
:100EC0004FF6FF7707EA052739434FF6FF7707EA22
:100ED0000337394345F6FF773A4046F480573A43A3
:100EE00081830284F0BD828B4FF6F3731A408283B4
:100EF000828B0A4382837047F0B50C461546002169
:100F000000220026078C4FF6FF6C07EA0C070784C7
:100F1000818B028C4FF6FF7707EA04264FF60C7799
:100F200039404FF6FF7707EA03172F4339434FF253
:100F3000FF573A4046F480773A4381830284F0BDFC
:100F4000028B4FF2FF331A400283028B4FF6FF737E
:100F500003EA01231A4302837047F0B50C46154695
:100F6000002100220026078C4FF6EF7C07EA0C07D1
:100F70000784018B028C4FF6FF7707EA041640F6D0
:100F8000FF4739404FF6FF7707EA033739434FF6FB
:100F9000FF7703E0000001400004014007EA052755
:100FA00039434FF65F773A4046F010073A430183E2
:100FB0000284F0BD028B4FF6F3731A400283028B5A
:100FC0000A4302837047F0B50C4615460021002203
:100FD000068C4FF6FE773E400684018B028C4FF65E
:100FE0000C7631407E1C06EA03162E4331434FF641
:100FF000F576324044F00106324301830284F0BDAD
:1010000070B505460C46208850B92389A2886188AE
:101010002846FFF7D8FFE1882846FFF7CBFF25E0F9
:10102000208804280AD12389A28861882846FFF7EE
:1010300094FFE1882846FFF783FF17E020880828FF
:101040000AD12389A28861882846FFF755FFE188E5
:101050002846FFF748FF09E02389A28861882846CF
:10106000FFF719FFE1882846FFF708FF70BD002150
:1010700001804180012181800021C1800181704770
:101080002DE9F04105460C4600260127608808B985
:10109000022600E00026A088012801D1022700E0F6
:1010A00001272088A0B92389A28861882846FFF7F4
:1010B0008AFFE1882846FFF77DFF23893A463146BB
:1010C0002846FFF74AFFE1882846FFF739FF13E07B
:1010D0002389A28861882846FFF73FFFE1882846D8
:1010E000FFF72EFF23893A4631462846FFF76BFF6C
:1010F000E1882846FFF75EFFBDE8F0810146486BB6
:1011000070470146886B70470146C86B70470146BF
:10111000086C70470A884B881A438B881A43CB881F
:101120001A430B891A434B891A438B891A43A0F837
:10113000442070470021018041808180C18001816D
:1011400041818181704731B1B0F8442042F40042BE
:10115000A0F8442005E0B0F84420C2F30E02A0F845
:101160004420704721B1828842F00402828004E06A
:1011700082884FF6FB731A408280704721B18288C3
:1011800042F00102828004E082884FF6FE731A402A
:10119000828070471AB183890B43838102E083897F
:1011A0008B43838170478182704702460020138AF7
:1011B0000B4201D0012000E000207047CA430282A8
:1011C000704730B50246002000230024158A05EA46
:1011D0000103958905EA010413B10CB1012000E077
:1011E000002030BDCA430282704741EA0203A0F8E2
:1011F000483070471AB183890B43838102E08389A9
:101200008B438381704721B1828842F0080282803B
:1012100004E082884FF6F7731A4082807047018994
:101220004FF6F8721140018170470A46002101898A
:101230004FF68F73194011430181704730B5044652
:101240000D4629462046FFF7F0FF208940F00700B1
:10125000208130BD2DE9F04104460D4616461F465B
:10126000602D06D13B46012231462046FFF775FE30
:1012700005E03B46012231462046FFF7A4FE294601
:101280002046FFF7D2FF208940F007002081BDE80B
:10129000F08130B50C4600210189C9B24FF6FF75C7
:1012A00005EA0325154325432943018130BD2DE976
:1012B000F04105460E4617469846002443463A46F6
:1012C00031462846FFF7E5FF2C894FF6F8700440B9
:1012D00044F007044FF68F70044044F070042C81F2
:1012E000BDE8F081F0B504460D4616461F463B4664
:1012F000324629462046FFF7CCFF208940F4804043
:101300002081F0BD82884FF68F731A4082808288D8
:101310000A438280704702894FF6F8731A400281AF
:1013200002890A430281704702894FF67F731A408F
:10133000028102890A4302817047F0B50C461546C6
:101340001E460021002200230189028B038C4FF6E8
:10135000F877394021434FF6FC473A4040F20117F5
:101360003A434FF6DD773B404FF6FF7707EA061723
:101370002F433B43018102830384F0BD21B1828866
:1013800042F08002828004E082884FF67F731A4028
:1013900082807047A0F850107047000010B50121FE
:1013A000880300F0D0FA00214FF4804000F0CBFA1F
:1013B00010BD1C49086070471B490862704730B572
:1013C00000228B071C0F0F2303FA04F2154B08337E
:1013D0008C1053F824309343124C08348D1044F889
:1013E000253023468C1053F824308C07240F00FA44
:1013F00004F423430B4C08348D1044F8253030BDE1
:101400000A49086070470A4908607047002005498A
:101410002031096811F4807F01D0012000E0002014
:10142000704700000038014000002742DC002742DE
:1014300000042742F948006840F00100F7490860BD
:101440000020F64908310860F4480068F449084073
:10145000F2490860F348091D0860F348EF498431F8
:101460000860F0481038091D0860EC48006820F456
:101470008020EA4908600020E8490C310860E7490B
:101480008C31086070470021E44A921C11701146AB
:101490000870704710B501460022002300204A1151
:1014A000012A02D1DD4C236808E0022A03D1DB4C7B
:1014B0007034236802E0D94C7434236801F01F02B1
:1014C000012494401C4201D0012000E0002010BD06
:1014D00038B5002000900024002500BF3120FFF720
:1014E000D9FF05460098401C00900098B0F5A04F29
:1014F00001D0002DF2D03120FFF7CCFF08B101243C
:1015000000E00024204638BD01460020C34A106890
:1015100020F0F80040EAC10010607047C34908603D
:1015200070470021BD4A703211701170012802D03D
:1015300004280AD104E00121B84A7032117005E094
:101540000521B64A7032117000E000BF00BF70473D
:10155000B7490860704770B5049C41EA82150126BE
:10156000C6EB530645EA0645054345EA0465AB4E1E
:10157000361D356070BDAD4908667047820142EA8C
:101580000172A64B84331A607047A8498866704779
:1015900010B5830143EA016343EA02739F4C883428
:1015A000236010BDA14908677047A049C86470470F
:1015B00002460020994B0833186820F0EC6042EA9C
:1015C00001031843954B083318607047024600200A
:1015D000924B0833186820F0784042EA0103184320
:1015E0008E4B083318607047014600208B4A083242
:1015F000106820F0030008431060704787480830E7
:10160000006800F00C00704701460020834A083251
:10161000106820F0F0000843106070470146002079
:101620007E4A0832106820F4E0500843106070478A
:1016300001460020794A0832106820F4604040EAF0
:10164000C10010607047F0B500210022002402257F
:1016500000260223714F08373F6807F00C0121B1C3
:10166000042905D0082937D105E0724F076036E01C
:10167000714F076033E0694F3F1D3F68C7F38056E5
:10168000664F3F1D3F6807F03F036EB16A4FB7FBDF
:10169000F3F7DFF888C10CF1040CDCF800C0CCF3E0
:1016A000881C07FB0CF40CE0624FB7FBF3F7DFF884
:1016B0006CC10CF1040CDCF800C0CCF3881C07FBF7
:1016C0000CF4564F3F1D3F68C7F301477F1C7D0058
:1016D000B4FBF5F7076002E0564F076000BF00BF9C
:1016E0004E4F08373F6807F0F0010909534F7A5C05
:1016F0000768D7404760494F08373F6807F4E05113
:10170000890A4E4F7A5C4768D7408760434F083755
:101710003F6807F46041490B484F7A5C4768D740FF
:10172000C760F0BD002100F44072B2F5407F0AD1DD
:101730003A4A0832116821F4F811414A0240114333
:10174000364A08321160354A70321268C0F30B0312
:101750001A43324B70331A60704735494439086078
:101760007047334940390860704736490860704710
:1017700001460020294A8C32106820F01F004A1EC2
:101780001043264A8C321060704701460020234ADD
:101790008C32106820F4F8504A1E40EA02201F4A9A
:1017A0008C3210607047014600201C4A8C32106851
:1017B00020F4401008431060704701460020174A8B
:1017C0008C32106820F440000843106070470146D6
:1017D0000020124A8C32106820F440300843106018
:1017E000704719490860704739B10C4A30321268A5
:1017F00002430A4B30331A6006E0084A303212685E
:101800008243064B30331A607047F9B1034A3432D1
:1018100012680243014B34331A601CE00038024066
:10182000FFFFF6EA1030002400300020000047429D
:10183000800E47420024F40000127A0000000020CD
:10184000FFFCFF0F5C014742E01147428F4A1268DC
:1018500082438E4B1A60704739B18C4A121D126850
:1018600002438A4B1B1D1A6006E0884A121D12684B
:101870008243864B1B1D1A60704739B1834A0C3274
:1018800012680243814B0C331A6006E07F4A0C3227
:10189000126882437D4B0C331A60704739B17B4A22
:1018A000103212680243794B10331A6006E0774A0F
:1018B000103212688243754B10331A60704739B189
:1018C000724A243A12680243704B243B1A6006E0C5
:1018D0006E4A243A126882436C4B243B1A6070476C
:1018E00039B16A4A203A12680243684B203B1A60B9
:1018F00006E0664A203A12688243644B203B1A6035
:10190000704739B1614A1C3A126802435F4B1C3B75
:101910001A6006E05D4A1C3A126882435B4B1C3B2E
:101920001A60704739B1594A143A12680243574B4A
:10193000143B1A6006E0554A143A12688243534B2E
:10194000143B1A60704739B1504A103A126802438A
:101950004E4B103B1A6006E04C4A103A1268824324
:101960004A4B103B1A60704739B1484A1C32126822
:101970000243464B1C331A6006E0444A1C3212688C
:101980008243424B1C331A60704739B13F4A2032C0
:10199000126802433D4B20331A6006E03B4A203276
:1019A00012688243394B20331A60704739B1374A85
:1019B000243212680243354B24331A6006E0334A5E
:1019C000243212688243314B24331A60704739B194
:1019D0002E4A2C32126802432C4B2C331A6006E03C
:1019E0002A4A2C3212688243284B2C331A607047E3
:1019F00039B1264A303212680243244B30331A6020
:101A000006E0224A303212688243204B30331A609B
:101A10007047012808D11D493C31096841F008018F
:101A20001A4A3C32116007E018493C31096821F03C
:101A30000801164A3C321160704739B1134A273AFF
:101A400012780243114B273B1A7006E00F4A273ADF
:101A5000127882430D4B273B1A7070470B48403079
:101A6000006840F0807009494031086070470146C5
:101A70000020064A283A12680A4201D0012000E0FC
:101A800000207047014926390870704734380240F9
:101A900010B504469848844208D101210846FFF752
:101AA0000EFF00210120FFF70AFF76E093488442F1
:101AB00008D101210220FFF702FF00210220FFF7D9
:101AC000FEFE6AE08E48844208D101210420FFF71F
:101AD000F6FE00210420FFF7F2FE5EE08948844212
:101AE00008D101210820FFF7EAFE00210820FFF7B6
:101AF000E6FE52E08448844208D101211020FFF71D
:101B0000DEFE00211020FFF7DAFE46E07F48844227
:101B100008D101212020FFF7D2FE00212020FFF76D
:101B2000CEFE3AE07A48844208D101214020FFF7F6
:101B3000C6FE00214020FFF7C2FE2EE07548844219
:101B400008D101218020FFF7BAFE00218020FFF795
:101B5000B6FE22E07048844208D101218015FFF7CB
:101B6000AEFE0021A015FFF7AAFE16E06B488442E6
:101B700008D101214015FFF7A2FE00216015FFF7F3
:101B80009EFE0AE06648844207D101210015FFF756
:101B900096FE00212015FFF792FE10BDF0B50A4613
:101BA00000210023002400BF3DE0012505FA01F3D8
:101BB000156805EA03049C4234D105684F000326EA
:101BC000BE40B543056015794E00B5400668354303
:101BD00005601579012D02D01579022D16D1856881
:101BE0004F000326BE40B543856055794E00B54091
:101BF000866835438560456801268E40B54345605B
:101C0000456896798E40B6B235434560C5684F0049
:101C10000326BE40B543C560D5794E00B540C668C1
:101C20003543C560491C1029BFD3F0BD4FF6FF7185
:101C300001600021017141718171C171704708B566
:101C40004FF480320092009A0A430092009AC261D7
:101C5000C161009AC261C2690092C269009208BD66
:101C60000246002013690B4201D0012000E0002051
:101C700070470146086980B27047024600205369E8
:101C80000B4201D0012000E0002070470146486966
:101C900080B2704701837047418370470AB1018366
:101CA00000E0418370474161704742694A404261A8
:101CB0007047F0B5002300244D07ED0E02FA05F33E
:101CC000CE1000F1200555F826504E07F70E0F26CE
:101CD000BE40B543CF1000F1200646F82750CE1085
:101CE00000F1200555F8265045EA0304CE1000F116
:101CF000200545F82640F0BD0000024000040240E7
:101D000000080240000C0240001002400014024093
:101D100000180240001C0240002002400024024043
:101D200000280240016821F00101016000210160EA
:101D300041608160C160016121214161DA498842CD
:101D400004D13D21D84A103A91608CE0D64918312F
:101D5000884205D14FF47461D34A103A916082E011
:101D6000D1493031884205D14FF47411CE4A103A2E
:101D7000916078E0CC494831884205D14FF07461D8
:101D8000C94A103A91606EE0C7496031884204D177
:101D9000C649C54A103AD16065E0C34978318842E6
:101DA00004D1C349C04A103AD1605CE0BE499031C9
:101DB000884204D1BF49BC4A103AD16053E0BA49C5
:101DC000A831884205D14FF03D51B74A103AD16051
:101DD00049E0B949884204D13D21B74A083A116027
:101DE00041E0B5491831884205D14FF47461B24AD7
:101DF000083A116037E0B0493031884205D14FF4DC
:101E00007411AD4A083A11602DE0AB49483188425F
:101E100005D14FF07461A84A083A116023E0A64941
:101E20006031884204D1A149A34A121F11601AE00F
:101E3000A1497831884204D19D499F4A121F1160FF
:101E400011E09D499031884204D19A499A4A121F63
:101E5000116008E09849A831884204D14FF03D5103
:101E6000954A121F1160704710B500220268934B0B
:101E70001A40CC680B6823434C6923438C69234385
:101E8000CC6923430C6A23434C6A23438C6A234363
:101E90004C6B23438C6B23431A430260426922F04C
:101EA0000702D1E90B3423431A4342610B694360B3
:101EB0004B6883608B68C36010BD00210160416086
:101EC0008160C160016141618161C1610162416202
:101ED0008162C162016341638163704721B102681D
:101EE00042F00102026003E0026822F00102026097
:101EF000704721B1026842F40042026003E00268C8
:101F000022F400420260704721B1026842F02002D0
:101F1000026003E0026822F0200202607047416024
:101F200070470146486880B2704722B1036843F4A5
:101F30000023036003E0036823F4002303600161CE
:101F4000704721B1026842F48022026003E0026817
:101F500022F48022026070470AB1016100E0C16092
:101F60007047014600200A6812F4002F01D00120BA
:101F700000E000207047014600200A6812F0010FBF
:101F800001D0012000E000207047014600204A698E
:101F900002F03800704730B503460A46002000249E
:101FA000454DAB4202D24049103901E04249103957
:101FB00012F0005F01D04C6800E00C68404D2C40EE
:101FC000144201D0012000E0002030BD02463A4B0F
:101FD0009A4202D23448103801E03748103811F0E4
:101FE000005F03D0364B0B40C36002E0344B0B4024
:101FF0008360704710B511F0800F09D022B143699A
:1020000043F08003436103E0436923F080034361AD
:1020100080290BD02AB1036801F01E04234303601A
:1020200004E0036801F01E04A343036010BD70B513
:1020300002460020002400251F4EB24202D21A4B55
:10204000103B01E01C4B103B1E4E314206D01E26B9
:1020500006EAD124166806EA040502E0566906F08D
:10206000800511F0005F01D05C6800E01C68144E30
:1020700034400C4202D00DB1012000E0002070BDC0
:1020800002460D4B9A4202D20748103801E00A4836
:10209000103811F0005F03D0094B0B40C36002E021
:1020A000074B0B4083607047106002403D000020EA
:1020B000400F002000003D20106402403F801CF0D3
:1020C0007D0F7D0F3C0F3C0F002041490860091D2A
:1020D0000860091D0860091D08603E483C4914312C
:1020E0000860704700213A498279002A3AD00A46AE
:1020F000126803689A430B461A600A1D1268036847
:102100009A430B1D1A60027911440A6803681A4346
:102110000A602F4A0832126803689A432C4B08332E
:102120001A601A1D126803689A43294B0C331A600F
:102130004279102A0ED11A1F126803681A43244BE1
:1021400008331A601A1D126803681A43204B0C33B7
:102150001A600DE01E49427911440A6803681A4367
:102160000A6005E0027911440A6803689A430A602C
:1021700070470021016001710C21417100218171C2
:1021800070471349103109680143114A1032116038
:102190007047014600200E4A143212680A4201D0EC
:1021A000012000E0002070470949143108607047A1
:1021B00001460020064A143212680A4201D001206A
:1021C00000E00020704702491431086070470000A9
:1021D000003C0140FFFF7F002DE9F0438FB0044633
:1021E0000D4616461F46DDE916986648844204D916
:1021F00001218805FFF7F8FA03E001214805FFF700
:10220000F3FA2046FFF78EFD00BF2046FFF7B3FE2E
:102210000028FAD1009501960297B8F1010F02D17A
:102220004020039001E000200390CDF810900020A2
:1022300005904FF480600690002007900890099068
:102240004FF480300A9000200B9003200C90002067
:102250000D900E9069462046FFF706FEB8F1000F7C
:1022600003D101212046FFF739FE0FB0BDE8F0830E
:1022700070B504460D4600212046FFF72FFE00BF33
:102280002046FFF778FE0028FAD129462046FFF7BE
:1022900046FE01212046FFF721FE70BD08B5112042
:1022A0008DF8000000208DF8010001208DF802005B
:1022B0008DF803006846FDF788FF0122102132489F
:1022C000FFF798FE08BD10B530492F48FFF763FEB1
:1022D00018B12E492C48FFF779FE10BD00B52DED41
:1022E000028B83B09FED2A0AB0EE408A0120642160
:1022F000284B294ACDE90010C10623484838FFF78A
:102300006BFF244825A10A68026089888180012228
:1023100080212148001FFEF761F964211A484838DE
:10232000FFF7A6FF27E04FF0C05117484838FFF7E6
:1023300032FE30B14FF0C05113484838FFF746FE27
:102340001AE011484838FFF7ECFD00EE100AB8EE2D
:10235000400AB0EE408A9FED130AC8EE000AB7EEBD
:10236000000A30EE600AB0EE408A9FED0E0A28EEB9
:10237000000AB0EE408AD6E700BF03B0BDEC028B86
:1023800000BD000000640240A06002400000202068
:1023900000000000B8910120044800407465737487
:1023A0000D0A00000000C84210B588B004460121A3
:1023B0000846FFF719FA01211020FFF76FFA0722EC
:1023C00009214148FFF775FC07220A213E48FFF723
:1023D00070FC4FF4C060069002208DF81C008DF850
:1023E0001D0000208DF81E0001208DF81F0006A999
:1023F0003548FFF7D3FB02940020ADF80C00ADF890
:102400000E00ADF81000ADF814000C20ADF812006D
:1024100002A92E48FDF7ADFF01212C48FEF731F847
:10242000012240F225512948FEF7E1F825208DF8D8
:10243000040003208DF805008DF8060001208DF8BA
:10244000070001A8FDF7C1FE08B010BD10B540F2AD
:1024500025511E48FEF706F910B31C48FEF740F858
:10246000C4B21B48008810F4004F2BD118480088D4
:1024700010F4804F0CD00A2C03D00020144908809F
:1024800020E01348008840F400401149088019E01A
:102490000D2C06D10E48008840F480400C4908807D
:1024A00010E00B480088C0F30D000A490C5408489E
:1024B0000088401C0649088008460088C72801DDBE
:1024C0000020088010BD0000000002400010014004
:1024D000100000209C92012000BF704700BF594AA5
:1024E000128812F0400FFAD0C2B2564B1B1D1A8050
:1024F000704770B586B004460D46164652480560D2
:102500005248066001214804FFF7B7F9012108206D
:10251000FFF76AF96020049002208DF814008DF80E
:10252000150000208DF8160001208DF8170004A971
:102530004748FFF733FB072205214548FFF7B9FB62
:10254000072206214248FFF7B4FB00940020ADF8B3
:102550000400ADF80600ADF80800ADF80C000C2042
:10256000ADF80A0069463748FDF703FF01213548F9
:10257000FDF787FF012240F225513248FEF737F878
:10258000002240F227712F48FEF731F8262000F094
:102590001F020121914042094FF0E02303EB820228
:1025A000C2F8001100BF06B070BD10B5012240F2A4
:1025B00027712448FEF71BF810BD38B540F227718B
:1025C0002048FEF74FF8A0B12048006880B1684667
:1025D0001E490968884728B19DF800101948FDF781
:1025E0007BFF05E0002240F227711648FDF7FFFF50
:1025F00000BF40F225511348FEF734F858B1114896
:10260000FDF76EFFC4B21048006818B120460E49AD
:102610000968884700BF38BD70B505460E460024DE
:102620000CE000BF40210748FEF706F80028F9D06B
:10263000295D0448FDF750FF601C84B2B442F0DB12
:1026400070BD000000440040180000201C00002065
:10265000000C02401CB50446214951F82400012118
:10266000FFF7C2F81F4850F82400009001208DF8B1
:10267000040000208DF806008DF805008DF8070095
:10268000194951F824006946FFF788FA154A32F8CB
:10269000242091B2144A52F824000022FFF7FEFAD7
:1026A0001CBD114951F8201049690E4A52F82020EA
:1026B00051400D4A52F8202051617047012907D13D
:1026C000084A32F82020084B53F820301A8306E0DD
:1026D000044A32F82020044B53F820305A837047C4
:1026E00040000020300000202000002010B50446EB
:1026F000042C05DB2CA221462CA004F033F910BDDC
:102700002046FFF7A7FF01203349085500BFF6E731
:1027100070B504460D46042C05DB23A2214623A0F8
:1027200004F020F970BD2C48005D28B91EA2214696
:102730002AA004F017F9F5E7012D04D10021204665
:10274000FFF7BCFF05E0022D03D101212046FFF772
:10275000B5FF2148055500BFE4E710B50446042C39
:1027600005DB11A2214611A004F0FCF810BD1A48A7
:10277000005D28B90CA2214618A004F0F3F8F5E793
:102780001548005D012803D102201349085506E0D1
:102790001148005D022802D101200F49085520464A
:1027A000FFF77FFF00BFE1E70D0A00004C45442D15
:1027B0002D3E204572726F723A20496E636F7272BD
:1027C000656374204C4544206E756D6265722025EA
:1027D0006421257300000000500000204C45442D6A
:1027E0002D3E204572726F723A20556E696E697483
:1027F00069616C697A6564204C4544202564212513
:10280000730000007FB504466846FEF71CFF019880
:10281000B0FBF4F1481EB0F1807F00D31BE0481EEE
:102820004FF0E022506150170F22002807DA1307FB
:102830001E0E0E4B00F00F052D1F5E5503E0130713
:102840001D0E0B4B1D5400BF00204FF0E022906185
:102850000720106100BF7FBD06480068704705482B
:102860000068401C034908607047000018ED00E054
:1028700000E400E0540000201FB501210802FEF72B
:10288000FCFF0020ADF80400ADF8060054200290D3
:102890000020ADF80C008DF80E0001A91648FDF7D8
:1028A000D8FF2D208DF8000000208DF801000120B8
:1028B0008DF802008DF803006846FDF786FC0122C2
:1028C00011460D48FEF766FC01210B48FEF74AF859
:1028D0001FBD0A480068704710B501210648FEF781
:1028E00064FC40B101210448FEF768FC034800681D
:1028F000401C0249086010BD002000405800002024
:1029000010B504462046FFF77DFF10BD10B5FFF758
:10291000A3FF10BD70B50646FFF7F8FF054610E0AF
:10292000FFF7F4FF0446AC4203D3601BB04200D96A
:1029300008E0AC4205D2C5F1FF302044B04200D9D6
:1029400000E0EDE700BF70BD70B50646FFF7C1FFC0
:10295000054610E0FFF7BDFF0446AC4203D3601B01
:10296000B04200D908E0AC4205D2C5F1FF302044A6
:10297000B04200D900E0EDE700BF70BD70B506467B
:102980000C46FFF7C3FF0546A54204D3281BB042FF
:1029900001D9012070BDA54206D2C4F1FF30284400
:1029A000B04201D90120F5E70020F3E770B50446F5
:1029B0000D46564800780A2806DD55A155A003F0BB
:1029C000D1FF4FF0FF3070BD504800784F49097873
:1029D00001EB81015C4A02F821004C48007800EBD1
:1029E0008000114601EB800005614848007800EB4B
:1029F000800001EB8000846000204449097801EBED
:102A0000810102EB810148604049097801EB8101B5
:102A100002EB810108733D480078401C3B49087077
:102A200008460078401E40B2CDE7002100EB80024E
:102A3000454B03EB82025160012100EB800203EB66
:102A4000820211737047002100EB80023E4B03EBC2
:102A5000820211737047012100EB80023A4B03EBB5
:102A600082021173704770B5FFF7F6FE06463748CD
:102A70000068864203D335480068351A04E03348BD
:102A80000068C0F1FF3085193048006828442F499C
:102A90000860002435E004EB84002B4901EB800042
:102AA000007B01282BD104EB840001EB80004068FF
:102AB000284404EB8401244A02EB8101486004EBC2
:102AC0008400114601EB8000406804EB840102EBB6
:102AD00081018968884212D3002004EB840102EB53
:102AE0008101486004EB8400114601EB800000691D
:102AF00028B104EB840102EB810108698047601C66
:102B0000C4B2024800788442C5DB70BD600000207A
:102B10000D0A00004C45442D2D3E2054494D455290
:102B2000533A2052656163686564206D6178696D10
:102B3000756D206E756D626572206F662074696DAB
:102B40006572732125730000649301205C000020EE
:102B500010B537480078032190FBF1F201FB120019
:102B600020B101280BD002281BD111E00121084619
:102B7000FFF7CEFD01210220FFF7CAFD11E002217F
:102B80000120FFF7C5FD01210220FFF7C1FD08E08C
:102B900001210846FFF7BCFD02210846FFF7B8FDFA
:102BA00000BF00BF23A124A003F0DCFE2048007872
:102BB000401C1F49087010BD08B54FF4A060FDF718
:102BC000FFFA4FF4E13000F0E8FB4FF47A70FFF7C2
:102BD00097FEAFF283014FF47A70FFF7E7FE0446E9
:102BE000E0B2FFF722FF0020FFF780FD0120FFF792
:102BF0007DFD0220FFF77AFD0320FFF777FDFFF749
:102C000085FE05461748184B184A012100901848C0
:102C100002F0CFFA0BE029464FF47A70FFF7AEFED0
:102C200028B10320FFF799FDFFF770FE0546F2E794
:102C3000610000200D0A00004D41494E2D2D3E201F
:102C40005465737420737472696E672073656E7453
:102C50002066726F6D2053544D333246342121214A
:102C600025730000B4000020489101207800002066
:102C70002C940120704700BFFEE700BFFEE700BFB5
:102C8000FEE700BFFEE77047704770470CB50020B5
:102C9000019000907548006840F4803073490860E6
:102CA00000BF7248006800F4003000900198401C9A
:102CB0000190009818B90198B0F5A04FF1D16B4878
:102CC000006810F4003F02D00120009001E00020D5
:102CD00000900098012845D164484030006840F0D9
:102CE00080506249403108606148006840F44040CB
:102CF0005F4908605D48083000685C490831086039
:102D00000846006840F4004008600846006840F447
:102D1000A05008605748091F0860081F006840F06D
:102D20008070091F086000BF5048006810F0007FE5
:102D3000FAD040F20570504908604C4808300068ED
:102D400020F003004949083108600846006840F057
:102D50000200086000BF45480830006800F00C0021
:102D60000828F8D10CBD10B54448006840F4700044
:102D7000424908603D48006840F001003B49086056
:102D800000203A4908310860384800683C4908404A
:102D9000364908603B48091D0860081F006820F498
:102DA0008020091F0860002030490C310860FFF7BF
:102DB0006DFF4FF0006031498039086010BD70B57B
:102DC00000200022022300240221284D08352D680E
:102DD00005F00C0020B1042806D0082834D107E003
:102DE000294D2A4E356033E0294D284E35602FE0BD
:102DF0001E4D2D1D2D68C5F380541C4D2D1D2D68B5
:102E000005F03F0154B1224DB5FBF1F5174E361DCB
:102E10003668C6F3881605FB06F209E01A4DB5FBC5
:102E2000F1F5124E361D3668C6F3881605FB06F21C
:102E30000E4D2D1D2D68C5F301456D1C6B00B2FBB9
:102E4000F3F5124E356003E00F4D104E356000BFB4
:102E500000BF064D08352D68C5F303150D4E705D96
:102E60000A4D2D68C540094E356070BD00380240DE
:102E70000070004008544007003C024088ED00E02C
:102E8000FFFFF6FE103000240024F4006400002050
:102E900000127A006800002010B586B004460121B7
:102EA0000846FEF7A1FC4FF4C850049003208DF8AB
:102EB000150002208DF8140000208DF816008DF802
:102EC000170004A98B48FEF769FE0A2208218948E9
:102ED000FEF7EFFE0A220B218648FEF7EAFE0A22E1
:102EE0000C218448FEF7E5FE4FF4007004900320A7
:102EF0008DF8150000208DF8140001208DF81600C3
:102F000000208DF8170004A97A48FEF747FE4FF419
:102F10008060049001208DF816008DF817000320C2
:102F20008DF8150004A97348FEF738FE0A221146F1
:102F30007048FEF7BEFE01218803FEF7AFFC0121B9
:102F40008020FEF762FC01210807FEF7EBFC01215F
:102F50000846FEF749FC01218803FEF79FFC00208C
:102F60008DF814008DF817000120049004A9614821
:102F7000FEF714FE00210846FEF721FA0120029018
:102F800000208DF80C0008208DF80D0001208DF830
:102F90000E0002A8FFF7A6F806208DF804000F2007
:102FA0008DF805008DF8060001208DF8070001A8B6
:102FB000FDF70BF90120FFF706F906B010BD38B593
:102FC00004464FF4C060FDF7FBF843208DF8000085
:102FD00001208DF8010003208DF8020001208DF8FA
:102FE00003006846FDF7F1F838BD10B50022C0EBCC
:102FF0000013DB000724B3FBF4F100BF531C1A4697
:103000008B4200D910BDF9E710B504464FF47A7130
:1030100004FB01F0FFF7E9FF10BD10B53648807AD8
:1030200010B33648006820F00600344908600120DB
:10303000FEF729FA00BF3120FEF72CFA0028FAD05B
:103040000120FEF798FA00BF3920FEF723FA002886
:10305000FAD00220FEF7C8FA00BFFEF7CFFA082820
:10306000FBD1254801F026FA4FF48020FFF7ABF89A
:1030700010BD10B5204802F026F810BD10B5012093
:10308000FFF796F8A8B31C48807A38B31A4890F82E
:103090001201042822D11948006820F006001749BF
:1030A00008600120FEF7EFF900BF3120FEF7F2F9CA
:1030B0000028FAD00120FEF75EFA00BF3920FEF7A3
:1030C000E9F90028FAD00220FEF78EFA00BFFEF7D9
:1030D00095FA0828FBD1084801F0ECF9064801F000
:1030E000B4F9054890F8131180F812110120FFF788
:1030F0006AF810BD000002402C94012010ED00E0A1
:103100000246122008802A487047024604200880A0
:103110002848704770B505460C462DB92246264909
:1031200026A002F06EFD04E02246234929A002F009
:1031300068FD214870BD70B505460C4622461E4903
:1031400028A002F05EFD1C4870BD70B505460C4617
:103150002DB92246184928A002F053FD04E022466A
:10316000154929A002F04DFD134870BD70B5054604
:103170000C462DB92246104927A002F042FD04E07A
:1031800022460D4924A002F03CFD0B4870BD70B5ED
:1031900005460C462DB92246074922A002F031FD12
:1031A00004E0224604491FA002F02BFD024870BD36
:1031B00094000020B000002090AC01204D6173739A
:1031C0002053746F7261676520696E204853204DEB
:1031D0006F64650053544D20555342206469736BEE
:1031E0000000000053544D6963726F656C65637431
:1031F000726F6E69637300003030303030303030C1
:10320000303031410000000030303030303030306C
:1032100030303142000000004D534320436F6E6652
:10322000696700004D534320496E7465726661639F
:103230006500000010B515A115A003F093FB10BDAB
:1032400010B5044611A118A003F08CFB10BD10B5F9
:103250000EA11CA003F086FB10BD10B50BA121A090
:1032600003F080FB10BD10B508A126A003F07AFB87
:1032700010BD10B505A12AA003F074FB10BD10B558
:1032800002A12FA003F06EFB10BD00000D0A00008C
:103290005553425F5553522D2D3E205553522049D0
:1032A0006E697425730000005553425F5553522DCB
:1032B0002D3E2044657669636520726573657425CB
:1032C000730000005553425F5553522D2D3E20444C
:1032D000657669636520636F6E666967757265649C
:1032E000257300005553425F5553522D2D3E204407
:1032F00065766963652073757370656E64656425B2
:10330000730000005553425F5553522D2D3E20440B
:10331000657669636520726573756D6564257300F4
:103320005553425F5553522D2D3E204465766963B7
:103330006520636F6E6E65637465642573000000BD
:103340005553425F5553522D2D3E20446576696397
:103350006520646973636F6E6E656374656425735D
:103360000000000010B5044621464C4800F0DDF88E
:1033700008B9012010BD0020FCE770B504462146C5
:10338000474800F0B5F805460D2C05D125B945484C
:103390000078401C4349087070BD10B50446AFF278
:1033A0003B02AFF229012046FFF7A3F83E483C4913
:1033B00048604FF400600881084600F089F83B48F7
:1033C000364948604FF400600881084600F080F8F4
:1033D00010BD10B50446262000F01F0201219140C7
:1033E000334A430942F8231000BF21462B4800F01E
:1033F0007FF8FFF7DAF8262000F01F020121914044
:1034000042094FF0E02303EB8202C2F8001100BF33
:1034100010BD08B500BF224800F09DF80128FAD081
:1034200069461F4800F081F89DF8000008BD38B5D6
:1034300005460C46002020701A48007800282AD043
:1034400020E0174800F087F838B10020207019A15B
:1034500019A003F087FA022038BD6946104800F031
:1034600064F89DF800102278501C2070A9549DF833
:1034700000000D2806D12078401E20700020217801
:10348000685400E0DDE700BF06480078401E0549AB
:1034900008700020E0E70120DEE700002CAA0120F0
:1034A00020AA0120D0000020209A012020A2012083
:1034B00080E100E00D0A0000434F4D4D2D2D3E20D0
:1034C000496E76616C6964206672616D6525730072
:1034D00010B50446208928B922A123A003F042FA9E
:1034E000012010BD002060802080608100BFF8E7CF
:1034F00070B504460D4660892189884205D119A11D
:1035000020A003F02FFA012070BD2188481C2080E4
:10351000606845546089401C608120882189884208
:1035200001D1002020800020EEE70246508908B932
:10353000012070475388581C50805068C05C087048
:103540005089401E508150881389984201D1002033
:1035500050800020EDE70146488908B901207047F6
:103560000020FCE70D0A00004649464F2D2D3E2065
:103570005A65726F204649464F206C656E677468C5
:10358000257300004649464F2D2D3E204649464FA3
:10359000206F766572666C6F772573000146002098
:1035A00070470346C82008604FF400701060002088
:1035B000704701464848007840F01000464A1070B5
:1035C000002070470146002070472DE9F043074670
:1035D0000D4600200026DFF800C19CF800C04CF02A
:1035E000020CDFF8F48088F800C002EB030C4FF403
:1035F000C838B8EB4C2F16D9002112E000240CE09B
:1036000002EB010C04EB4C2CDFF8D08018F80C9086
:10361000B446761C05F80C90641CB4F5007FEFD31B
:10362000491C9942EAD3BDE8F0832DE9F0430746EF
:103630000D4600200026DFF8A0C09CF800C04CF02A
:10364000010CDFF8948088F800C002EB030C4FF403
:10365000C838B8EB4C2F16D9002112E000240CE03A
:10366000B446761C15F80C8002EB010C04EB4C2CD4
:10367000DFF8689009F80C80641CB4F5007FEFD384
:10368000491C9942EAD3DFF858C0DFF8588098F80F
:1036900000804CF82820DFF850C0DFF8488098F808
:1036A00000802CF81830DFF83CC09CF800C00CF10A
:1036B000010CDFF8308088F800C0C4469CF800C0D8
:1036C000BCF1640F03D14FF0000C88F800C0BDE8D6
:1036D000F083012070470000D4000020D5000020B6
:1036E00038AA0120FC900120C8AB012008B50021B8
:1036F0000091491EC26851606FF08041C2685161FB
:10370000009921F0004101F100410091009921F45C
:10371000006101F5006100910099C268916108BDE6
:10372000F8B50446002600250020009000BF0320C5
:10373000FFF75BFCE06800690090681C0546FA49E9
:10374000884201D90020F8BD0098C00FEFD00025B5
:10375000009820F00100401C00900098E16808618A
:1037600000BFE06800690090681C0546EE49884289
:1037700000D903E0009810F0010FF2D100BF032040
:10378000FFF733FC3046DEE72DE9F0410446002622
:10379000E078B0B900270020DD1C4FEAE57805EBA2
:1037A00098784FEAA80704F1D00555F822C000BF69
:1037B00004E00D68CCF80050401C091DB842F8D355
:1037C00000BF3046BDE8F081F0B503460024D01CB0
:1037D000C71700EB9777BD10D3F8D06000BF03E0A8
:1037E00030680860641C091DAC42F9D30846F0BD7E
:1037F00070B502460C46002300200025D570012537
:10380000957040259580012C0CD14FF0A0430125E7
:10381000D57208251570042555709D15D580022593
:1038200015720AE04CB9C14B0025D5720C251570F4
:10383000062555704FF4A065D580D36003F500656B
:103840001561002110E003F5106505EB411602F14A
:10385000180545F8216003F5306505EB411602F1C6
:10386000540545F82160491C55788D42EBD803F585
:10387000806555614035C2F8CC50002108E003F561
:10388000A06505EB411602F1900545F82160491C41
:1038900015788D42F3D8002108E003F5805505EB3B
:1038A000013602F1D00545F82160491C15788D429A
:1038B000F3D803F56065C2F80C5170BD3EB50446FF
:1038C00000250020029001900090207A01283DD12F
:1038D000E068806B0190019820F480300190607A5C
:1038E00028B1019820F4801000F580100190019813
:1038F000E168886300200290E068C0680290029846
:1039000020F040000290029820F48000029002987B
:1039100020F400300290029820F4002002900298D7
:10392000E168C8602046FFF7FBFEE078012843D13C
:10393000009820F01E000A300090009820F020002F
:10394000203000900098E168886035E0E068C06849
:103950000290029820F04000403002900298E16806
:10396000C8602046FFF7DCFE00200190019820F49B
:10397000803000F580300190019820F4802000F51F
:1039800080200190019820F4002000F50020019093
:10399000019820F4001000F500100190607A28B121
:1039A000019820F4801000F5801001900198E168E2
:1039B00088631420FFF728FBE07801280FD1E06826
:1039C00080680090009820F01E000A300090009857
:1039D00020F02000203000900098E16888602846A0
:1039E0003EBD08B50146002000220092009A22F058
:1039F0000102521C0092CA689268009B1A43CB686D
:103A00009A6008BD08B50146002000220092009A85
:103A100022F00102521C0092CA689268009B9A43ED
:103A2000CB689A6008BDF8B504460D46002600270D
:103A300000200090009820F0200020300090009896
:103A400065F38A1000900098E168086100BFE068A3
:103A500000690090781C07463349884200D904E089
:103A60000098C0F340100028F1D100BF0320FFF7F9
:103A7000BCFA3046F8BDF8B5044600250026002003
:103A80000090009820F01000103000900098E1683D
:103A9000086100BFE06800690090701C064622497A
:103AA000884200D904E00098C0F300100028F1D14A
:103AB00000BF0320FFF799FA2846F8BDF8B5044681
:103AC0000D460026E068C0680090009820F0005085
:103AD0000090009820F080400090012D06D10098C1
:103AE00020F0005000F10050009006E02DB9009841
:103AF00020F0804000F1804000900098E168C860AC
:103B00003220FFF781FA3046F8BD0146C8684069A7
:103B100000F00100704700B502461046FFF7F5FFC0
:103B2000012805D0012000BD400D03000000044025
:103B30000020F8E700B502461046FFF7E6FF01282F
:103B400000D100BD0020FCE701460020CA68506992
:103B5000CA689269104070470146C868406870475B
:103B600008B5026912680092009A61F3010200929E
:103B7000009B0269136008BD38B50446002500208B
:103B80000090E16888616FF08040E16848612046FC
:103B9000FFF7ACFDE07820B9009820F0100010305D
:103BA0000090009820F4006000F5006000900098FC
:103BB00020F4805000F580500090009820F40050D0
:103BC00000F500500090009820F4802000F580203F
:103BD0000090009820F4002000F50020009000984C
:103BE00020F0080008300090009820F4801000F5C4
:103BF00080100090009820F4001000F50010009054
:103C0000E0688069009988430843E1688861284634
:103C100038BD70B588B00446002600200790069095
:103C20000590049003900021D4F80C0101602069F4
:103C300000680690069820F4C05006900699206906
:103C40000160E07A01283DD103212046FFF788FF7B
:103C50008020E1684862059880B200F580000590F8
:103C600005986FF30F00803005900598E168886231
:103C7000059800EB1041049861F30F00049004983C
:103C800080B200F5000004900498E168C1F80401D6
:103C9000049800EB104161F30F000490049880B287
:103CA00004900499E068C0F80811049800EB1041F2
:103CB00061F30F000490049880B204900499E068C6
:103CC000C0F80C1110212046FFF7ADFE2046FFF78B
:103CD000D2FE00212069016120694161491E2069ED
:103CE000816100212069C16100252CE004F11800E8
:103CF00050F82500006807900798C00F0ED00020EC
:103D00000790079820F0804000F1804007900798C6
:103D100020F0006000F10060079001E000200790B3
:103D200004F1180050F8250007990160002104F102
:103D3000180050F825000161FF2104F1180050F827
:103D4000250081606D1C6078A842CFD800252CE04A
:103D500004F1540050F82500006801900198C00F4C
:103D60000ED000200190019820F0804000F18040AA
:103D70000190019820F0006000F10060019001E0E6
:103D80000020019004F1540050F8250001990160D1
:103D9000002104F1540050F825000161FF2104F1D5
:103DA000540050F8250081606D1C6078A842CFD87F
:103DB00000200390039820F4807000F58070039039
:103DC0002069006903998843084321690861E07804
:103DD00001281DD100200290029820F00100401C13
:103DE0000290029820F00200801C0290402102986C
:103DF00061F38A000290029820F4803000F5803050
:103E00000290029861F3594002900299206901637F
:103E10002046FFF7B1FE304608B070BD08B5014638
:103E200000200A6992680092009AC2F3410232B1FE
:103E3000012A06D0022A07D0032A07D102E0032074
:103E400004E000BF022001E0012000BF00BF08BD68
:103E50000EB501460020002200920A699268029283
:103E60008A6912680192029AC2F3410232B1012AB0
:103E700005D0022A09D0032A0DD101E000BF00BFFE
:103E8000019A6FF30A02019205E0019A6FF30A02A8
:103E9000D21C019200BF00BF019B8A691360009A87
:103EA00022F4807202F5807200920A695268009BC7
:103EB0009A431A430B695A600EBD3CB50246002076
:103EC0000024019400944C78012C0CD10D7802F15F
:103ED000180454F825300D780124AC40009D64F39B
:103EE0000F0500950BE00D7802F1540454F82530CD
:103EF0000D780124AC40009D64F31F4500951C68BB
:103F00000194019CC4F3C034E4B90D89019C65F3AC
:103F10000A040194CD78019C65F3934401948D7952
:103F2000019C65F399540194019C24F0805404F1A0
:103F300080540194019C24F4004404F5004401944D
:103F4000019C1C601469E469009D2C431569EC61B7
:103F50003CBD3CB5024600200024019400944C78FE
:103F6000012C0CD10D7802F1180454F825300D788D
:103F70000124AC40009D64F30F0500950BE00D7823
:103F800002F1540454F825300D780124AC40009D12
:103F900064F31F450095019C24F400440194019CA6
:103FA0001C601469E469009DAC431569EC613CBD7B
:103FB000FEB505460C460026002700200290019021
:103FC000607801287ED1217805F1180050F8210091
:103FD00000680290217805F1180050F8210000696E
:103FE0000190606948B901986FF3120001900121B6
:103FF000019861F3DC40019017E06169019861F379
:10400000120001906069401EA1680844B0FBF1F104
:10401000019861F3DC400190E078012805D1019816
:1040200020F0C04000F100500190227805F1180006
:1040300050F8220001990161E878012807D122781F
:1040400005F1180050F82200216941610DE0E07887
:1040500001280AD0606940B12178012000FA01F7F7
:104060002869406B384329694863E078012815D1F5
:104070002869806800900098C0F30D2010F0010FAF
:1040800006D1029820F0005000F10050029005E0A7
:10409000029820F0805000F180500290029820F0A9
:1040A000806000F180600290029820F0004000F1F2
:1040B00000400290227805F1180050F82200029981
:1040C000016000E00AE0E07801286CD1A08A83B2A8
:1040D00022782846E168FFF757FB64E0217805F174
:1040E000540050F8210000680290217805F1540036
:1040F00050F8210000690190606950B9A1680198E9
:1041000061F3120001900121019861F3DC400190FC
:1041100013E0A068401E61690844A168B0FBF1F19A
:10412000019861F3DC4001900198C0F3C940A16897
:104130004843019960F312010191227805F154007E
:1041400050F8220001990161E878012806D122780F
:1041500005F1540050F8220021694161E0780128FE
:104160000ED1607930B1029820F0005000F100507B
:10417000029005E0029820F0805000F180500290FB
:10418000029820F0806000F180600290029820F098
:10419000004000F100400290227805F1540050F8F0
:1041A0002200029901603046FEBDFEB502460020A5
:1041B00000240025029500954D78012D52D1936978
:1041C0001D6802951D6900954D6955B9009D25F042
:1041D0007F050095009D25F4C01505F50025009587
:1041E00016E08E684D69B54207D98D684D610E7A2B
:1041F000009D66F30605009504E00E7D009D66F3C4
:1042000006050095009D25F4C01505F500250095CF
:10421000009D1D61D578012D06D10F7802F118059A
:1042200055F827500E696E61029D25F0806505F1F5
:1042300080650295029D25F0004505F10045029537
:10424000029D1D60D578002D59D14D69002D56D0A5
:104250000E780125B5402C4315696D6B2543166911
:1042600075634CE00E7802F1540555F826502D6820
:1042700002950E7802F1540555F826502D690095E7
:104280004D695DB90E7A009D66F306050095009DA7
:1042900025F4C01505F5002500950CE08D684D61ED
:1042A0000E7A009D66F306050095009D25F4C01565
:1042B00005F5002500950F7802F1540555F82750B3
:1042C000009E2E61D578012D06D10F7802F154059C
:1042D00055F827500E696E61029D25F0806505F145
:1042E00080650295029D25F0004505F10045029587
:1042F0000F7802F1540555F82750029E2E60FEBD3E
:1043000038B503460A460020002400945478012C56
:1043100018D1157803F1180454F825100C6800948E
:10432000009CE40F05D0009C24F0804404F18044FC
:104330000094009C24F4001404F500140094009CE4
:104340000C600EE0157803F1540454F825100C6845
:104350000094009C24F4001404F500140094009CC4
:104360000C6038BD38B503460020002400944C781A
:10437000012C05D10D7803F1180454F8252004E030
:104380000D7803F1540454F8252014680094009C1F
:1043900024F400140094CC78032C02D0CC78022CA6
:1043A00005D1009C24F0805404F180540094009CBA
:1043B000146038BD0146086982690869C069024015
:1043C000100C7047024602F1540353F821309868EC
:1043D00013695B691840704701460869826908697A
:1043E000C069024090B270470EB500210191019959
:1043F00021F04041A1F180410191019921F4C011C6
:1044000001F500210191019921F07F0118310191FD
:10441000019A416D0A61C178012915D100210091ED
:1044200000F2CC51426D5161416D096800910099D3
:1044300021F0004101F1004100914FF080210091F5
:10444000009A416D0A6000BF0EBD3EB504464FF4B0
:104450008C70005968B3206980680190019810F051
:10446000010F26D0A07A70B1D4F80C01009000980A
:1044700020F002000090009820F0010000900099C8
:10448000D4F80C01016000200290029820F0010095
:10449000401C0290206940680299084321694860E5
:1044A0000520FEF7B1FD2069406802998843216923
:1044B00048603EBD0CB5817AB1B10169896801914E
:1044C000019911F0010F0ED0D0F80C110091009954
:1044D00021F002010091009921F001010091009A60
:1044E000D0F80C110A6000BF0CBD70B50446012164
:1044F0004FF48970015500250BE0FF2104F11800ED
:1045000050F82500816004F1540050F825008160C6
:104510006D1C6078A842F0D80021206901612069F3
:1045200041612069C161491E206981612046FFF710
:10453000A2FA10212046FFF776FA70BD38B503467F
:104540000020002400944C78012C14D10D7803F144
:10455000180454F8252014680094009CC4F34054B7
:104560000CB110201EE0009CC4F340440CB120208C
:1045700018E0302016E00D7803F1540454F825209B
:1045800014680094009CC4F3405414B14FF480505C
:1045900008E0009CC4F3404414B14FF4005001E023
:1045A0004FF4405038BDF8B507460D46144600207C
:1045B0000090687801283CD1297807F1180050F85C
:1045C000216030680090102C04D129463846FFF74E
:1045D00097FEF8BD202C06D1009820F0006000F175
:1045E0000060009068E0302C1DD10098C0F340506E
:1045F00030B10020687129463846FFF7B3FEE8E77E
:10460000009820F0806000F180600090009820F415
:10461000004000F500400090009820F0004000F1BC
:104620000040009048E0ECBB009820F4004000906F
:1046300042E0297807F1540050F82160306800907A
:10464000B4F5805F06D1009820F4001000F500104A
:10465000009031E0B4F5005F06D1009820F00060D2
:1046600000F10060009027E0B4F5405F1FD1009892
:10467000C0F3405030B10020687129463846FFF73A
:1046800071FEA6E7009820F0806000F18060009045
:10469000009820F4004000F500400090009820F0C1
:1046A000004000E008E000F10040009004E01CB988
:1046B000009820F4004000900098306000BF88E728
:1046C0002DE9F04106460F4639463046FFF790F88F
:1046D00001214FF4897081550021801C81550025EE
:1046E00011E005EB850106F58E7000EBC104012099
:1046F00060702570E5800020E0704020A060002000
:10470000E06060616D1C7078A842EAD8002510E076
:1047100005EB850106F55D7000EBC10400206070BB
:104720002570E580E0704020A0600020E0606061BE
:104730006D1C7078A842EBD83046FFF763F930461D
:10474000FFF7BCF800213046FFF7B8F93046FFF715
:1047500060FA3046FFF745F9BDE8F0812DE9F041F8
:1047600006460D4690461F4605F08000802808D179
:1047700005F07F0000EB800106F58E7000EBC104B0
:1047800007E005F07F0000EB800106F55D7000EBAF
:10479000C10405F07F00207005F08000C009607042
:1047A000C4F80880E770607808B12078E080022FB4
:1047B00001D10020207121463046FFF77EFB00200A
:1047C000BDE8F08170B506460C4604F080008028F4
:1047D00008D104F07F0000EB800106F58E7000EB3D
:1047E000C10507E004F07F0000EB800106F55D7075
:1047F00000EBC10504F07F00287004F08000C009C0
:10480000687029463046FFF7A4FB002070BD2DE9F3
:10481000F04105460E461746984606F07F0000EB2D
:10482000800105F55D7000EBC104E760C4F81480F9
:104830000020A061607006F07F002070E8780128F9
:1048400000D12761207820B921462846FFF7ADFC2A
:1048500003E021462846FFF7ABFB0020BDE8F081CE
:104860002DE9F04107460D461646984605F07F00B3
:1048700000EB800107F58E7000EBC1040120607031
:1048800005F07F002070E66026610020A061C4F87A
:104890001480207820B921463846FFF786FC03E0D3
:1048A00021463846FFF784FB0020BDE8F08170B553
:1048B00006460C4604F08000802808D104F07F00F2
:1048C00000EB800106F58E7000EBC10505E004EBFE
:1048D000840106F55D7000EBC1050120A87004F0AD
:1048E0007F002870C4F3C010687029463046FFF777
:1048F00007FD002070BD70B506460C4604F0800030
:10490000802808D104F07F0000EB800106F58E704E
:1049100000EBC10505E004EB840106F55D7000EBDA
:10492000C1050020A87004F07F002870C4F3C010F7
:10493000687029463046FFF715FD002070BD70B540
:1049400005460C4604F08000802805D104F07F0164
:104950002846FFF768F802E02846FFF78CF80020A9
:1049600070BD08B500220092009A61F30A1200920D
:1049700002691268009B1A4303691A6008BD38B5C2
:104980000446206940680090009820F002000090E2
:104990000099206941600320FEF736FB38BD38B529
:1049A0000446206940680090009820F00200801CB6
:1049B00000900099206941600320FEF725FB38BD77
:1049C0002DE9F04105460C46002704F080008028C0
:1049D00008D104F07F0000EB800105F58E7000EB3C
:1049E000C10605E004EB840105F55D7000EBC1062E
:1049F00031462846FFF7A2FD07463846BDE8F0815C
:104A00002DE9F04105460C46174604F08000802849
:104A100008D104F07F0000EB800105F58E7000EBFB
:104A2000C10605E004EB840105F55D7000EBC106ED
:104A30003A4631462846FFF7B6FDBDE8F081000052
:104A400038B5044600200090FE480068016A204600
:104A50008847009820F4001000F50010009000989E
:104A6000E1684861012038BD38B504460020009057
:104A7000F4480068C16920468847009820F48010F7
:104A800000F5801000900098E1684861012038BD71
:104A90001CB504462046FFF7DBF9E068C0680090CB
:104AA0002046FFF7BBF903280BD10020A0704FF47C
:104AB0000070A080009820F4705000F51050009015
:104AC00009E00120A0704020A080009820F47050E0
:104AD00000F5A05000900098E168C86000200190A7
:104AE000019820F4005000F5005001900198E16811
:104AF000486101201CBD30B587B0044600200290FB
:104B000006900590049003900190029820F0010017
:104B1000401C0290206940680299884321694860DE
:104B200000212046FEF77FFF00250BE0FF2104F166
:104B3000180050F82500816004F1540050F8250059
:104B400081606D1C6078A842F0D84FF0FF31206979
:104B5000816106986FF30F00401C0690069880B2A2
:104B600000F58030069006992069C161059820F013
:104B7000080008300590059820F00100401C0590C1
:104B8000059820F00200801C05900599206941617C
:104B9000049820F00100401C0490049820F00800C4
:104BA00008300490049820F00200801C04900499BE
:104BB00020690161206900680390039820F4FE6079
:104BC00003900399206901602046FFF70DFC002047
:104BD0000190019820F4805000F5805001900198D8
:104BE000E1684861974800680169204688470120CC
:104BF00007B030BD7CB5044600200190019820F03C
:104C0000100010300190E068806901998843E168E4
:104C10008861E068006A0090009800F00F0000EBE7
:104C2000800104F55D7000EBC1050098C0F34340BE
:104C300007282DD2DFE800F02C04051D1E2C1F00D4
:104C400027E00098C0F30A1090B10098C0F30A1250
:104C50002046E968FEF7B8FDE8680099C1F30A113B
:104C60000844E860A8690099C1F30A110844A861E2
:104C70000FE00EE00DE0082204F2CC512046FEF7D2
:104C8000A3FDA8690099C1F30A110844A86100E0D6
:104C900000BF00BFE068806901990843E16888614E
:104CA00001207CBD38B5044666480068C1682046CE
:104CB000884700200090009820F0080008300090FD
:104CC0000098E1684861012038BD1FB50446002006
:104CD00000904FF48970005D00905A480068416967
:104CE000204688472069806801900020039003983F
:104CF00020F4006000F5006003900398E1684861CB
:104D0000A07A70B3019810F0010F2AD040F215106C
:104D1000005D012825D19DF80000032821D1002045
:104D20000290029820F00100401C0290D4F80C017F
:104D3000006802990843D4F80C110860029820F02A
:104D40000200801C0290D4F80C010068029908430C
:104D5000D4F80C1108603C48006840F006003A495D
:104D60000860012004B010BD3EB50446A07A70B1C1
:104D7000D4F80C010090009820F0020000900098F8
:104D800020F0010000900099D4F80C01016000208F
:104D90000190019820F00100401C019020694068BA
:104DA0000199884321694860264800688169204646
:104DB000884700200290029820F0004000F1004057
:104DC00002900298E168486101203EBD2DE9F84358
:104DD00007460E4600250020009006EB860107F5E9
:104DE0008E7000EBC104D4E90501451AA068A84201
:104DF00000D2A568E81C4FEA900807F1180050F8A7
:104E00002600806900901BE0D4E90501451AA068DE
:104E1000A84200D2A568E81C4FEA9008ABB2F2B2F3
:104E20003846E168FEF7B0FCE0682844E060A0691D
:104E30002844A06107F1180050F82600806900900E
:104E4000009803E02C91012010ED00E080B2404575
:104E500006D9D4E90510884202D260690028D3D16E
:104E60000120BDE8F88330B5024615692B69156944
:104E70006C6B24FA01F505F0010543EAC51302F154
:104E8000180555F82150AD6805EA030030BDF8B5A6
:104E900005460024002000902846FFF79DFA0646AC
:104EA0008FE016F0010F7DD0E1B22846FFF7DBFF5F
:104EB0000090009810F0010F26D0012000FA04F7AE
:104EC0002869406BB8432969486300200090009826
:104ED00020F00100401C009005F1180050F824005B
:104EE00000998160E1B2B048006842682846904766
:104EF000E878012808D13CB940F21110405D04283F
:104F000002D12846FFF770FA0098C0F3C00060B1E4
:104F100000200090009820F008000830009005F173
:104F2000180050F82400009981600098C0F3001028
:104F300060B100200090009820F010001030009028
:104F400005F1180050F82400009981600098C0F322
:104F5000801060B100200090009820F040004030A8
:104F6000009005F1180050F8240000998160009825
:104F7000C0F3400060B100200090009820F00200D3
:104F8000801C009005F1180050F824000099816001
:104F90000098C0F3C01028B121462846FFF716FF3D
:104FA000002000E00BE00090009820F080008030AE
:104FB000009005F1180050F8240000998160641CED
:104FC0007608002E7FF46DAF0120F8BD7CB5044655
:104FD0000025002001902046FFF7ECF906466EE020
:104FE00016F0010F69D0E9B22046FFF7EBF9019006
:104FF000019810F0010F39D000200190019820F0A5
:105000000100401C019004F1540050F82500019962
:105010008160E078012817D104F1540050F8250090
:105020000069009005EB850104F55D7000EBC1009F
:1050300080680099C1F31201411A05EB850204F55D
:105040005D7000EBC2008161E9B2574800680268F8
:1050500020469047E078012808D13DB940F2111070
:10506000005D052802D12046FFF7BEF90198C0F384
:10507000400060B100200190019820F00200801CE7
:10508000019004F1540050F82500019981600198C5
:10509000C0F3C00088B14448006881682046884752
:1050A00000200190019820F008000830019004F1E0
:1050B000540050F82500019981606D1C7608002E7F
:1050C0008ED101207CBD7CB5054600242846FEF724
:1050D00022FD002865D02846FEF736FD0190019894
:1050E00008B900207CBD0198C0F3C04018B1284623
:1050F000FFF76CFF04430198C0F3804018B12846C5
:10510000FFF7C5FE04430198C0F3400050B10020F2
:105110000090009820F00200801C00900098E96840
:10512000486100BF0198C00F03D02846FFF71CFE5E
:1051300004430198C0F3C02018B12846FFF7C5FD0D
:1051400004430198C0F3C00018B12846FFF7AAFD38
:1051500004430198C0F3001018B12846FFF74AFD38
:1051600004430198C0F3003018B12846FFF7C3FC90
:1051700004430198C0F3403018B12846FFF788FC7B
:1051800004430198C0F3005018B12846FFF76CFCA7
:1051900004430198C0F3405018B12846FFF750FC73
:1051A000044320469EE700002C9101200146002088
:1051B00070472DE9F04104460F4615461E46DDF8BE
:1051C00018802046FDF768FE2046FFF7EFFFC4F881
:1051D000E465C4F8E885C4F8EC5539462046FFF785
:1051E0006FFAD4F8E815086880472046FDF7E7FE17
:1051F000BDE8F0811CB504466946204600F0D3FCAA
:105200009DF8000010F01F0004D0012807D00228EC
:105210000FD109E06946204600F0B2FB11E0694673
:10522000204600F0E6FB0CE06946204600F007FC53
:1052300007E09DF8000000F080012046FFF737FBF3
:1052400000BF00BF00201CBD70B505460E46A6BBC2
:1052500005F55D7440F21110405D03283DD1A16851
:10526000E069884217D9A168E069401AE061E878EE
:10527000012803D1D4E902100844E060A368E06982
:10528000984201D2E06900E0A06882B22846E16855
:1052900000F045F921E0D5F8E405006948B14FF484
:1052A0008970405D032804D1D5F8E40501692846DA
:1052B0008847284600F042F90FE0FFE7D5F8E405FB
:1052C000806950B14FF48970405D032805D1D5F84D
:1052D000E4053146826928469047002070BD0146AA
:1052E0006F480268086942600020704770B5054643
:1052F0000E46002E51D105F58E7440F21110405D1E
:1053000002283DD1A168E069884211D9A168E0690D
:10531000401AE061E878012803D1D4E9021008447A
:10532000E060A08B82B22846E16800F0D2F827E066
:10533000A168206AB0FBF1F201FB120078B9A16804
:10534000206A88420BD3D4E90801884207D20022A0
:105350001146284600F0BDF80020606210E0D5F844
:10536000E405C06848B14FF48970405D032804D15A
:10537000D5F8E405C16828468847284600F0F0F8CB
:105380004FF48B70405D012816D12846FFF7A7FF28
:1053900000214FF48B7041550EE0D5F8E4054069CB
:1053A00050B14FF48970405D032805D1D5F8E4056C
:1053B0003146426928469047002070BD10B504462A
:1053C0000023402219462046FFF7C8F90023402257
:1053D00080212046FFF7C2F901214FF48970015561
:1053E000A078D4F8E82551688847002010BD10B592
:1053F0000446D4F8E8150869804740F21310015DAF
:10540000401E015503210155002010BD10B5044672
:105410004FF48970015D401C01550421401E015567
:10542000D4F8E815C8688047002010BD10B50446C0
:10543000D4F8E405C06920B1D4F8E405C169204678
:105440008847002010BD70B504460D46D4F8E40529
:105450002946026820469047D4F8E81588688047B6
:10546000002070BD70B504460D46D4F8E405294609
:10547000426820469047002070BD10B50446D4F81D
:10548000E405016A20468847002010BD10B5044697
:10549000D4F8E405416A20468847002010BD00008A
:1054A000309101202DE9F04104460E4615460027B3
:1054B000C4F83C51C4F83851022140F21110015592
:1054C0002B46324600212046FFF7CAF93846BDE890
:1054D000F0812DE9F04106460C46154600272B4683
:1054E000224600213046FFF7BBF93846BDE8F0817F
:1054F0002DE9F04104460E4615460027C4F89453A2
:10550000C4F89053032140F2111001552B46324646
:1055100000212046FFF77BF93846BDE8F0812DE9F0
:10552000F04106460C46154600272B462246002130
:105530003046FFF76CF93846BDE8F08170B5044697
:105540000025042140F21110015500231A46194686
:105550002046FFF785F92046FEF746FF284670BD36
:1055600070B504460025052140F2111001550023B5
:105570001A4619462046FFF74AF92046FEF734FF3F
:10558000284670BD024601EB810302F55D7000EB19
:10559000C300008B80B2704770B504460D46802171
:1055A0002046FFF784F900212046FFF780F92046C6
:1055B000FEF71AFF70BD70B504460D464FF48970B2
:1055C000005D022802D0032812D100E000BF6888E5
:1055D00001280CD100214FF48C700151D4F8E4055E
:1055E00029468268204690472046FFF7A7FF04E03F
:1055F00029462046FFF7D0FF00BF00BF70BDF8B5B9
:1056000004460D460026688801280DD101214FF47B
:105610008C700151D4F8E4052946826820469047F1
:105620002046FFF78BFF39E06888022836D12879B9
:10563000A0BB206940680090A8880612062E22D2DE
:10564000DFE806F02103090F151B009820F0700019
:105650001030009017E0009820F07000203000908B
:1056600011E0009820F07000303000900BE00098BE
:1056700020F070004030009005E0009820F07000AD
:105680005030009000BF00BFF74800990160012131
:105690004FF48B7001552046FFF750FFF8BD70B5F1
:1056A00004460D464FF48970005D022802D003289D
:1056B00013D100E000BF0120EC4908604FF48C706A
:1056C000005920B10846006840F00200086002223C
:1056D000E6492046FFF7E6FE04E029462046FFF7AC
:1056E0005BFF00BF00BF70BD70B504460D46E88883
:1056F000012804D029462046FFF74EFF1AE04FF458
:105700008970005D022802D003280DD105E0012236
:10571000D7492046FFF7C6FE0BE0012204F5887149
:105720002046FFF7BFFE04E029462046FFF734FF7E
:1057300000BF00BF70BD70B504460D46A878CD49C6
:10574000087008460078012804DD29462046FFF746
:1057500023FF55E04FF48970005D022802D0032832
:1057600048D117E0C348007880B1C248007884F877
:10577000100103214FF489700155BE48017820467D
:10578000FFF761FE2046FFF7D9FE02E02046FFF753
:10579000D5FE34E0B748007880B902214FF4897013
:1057A0000155B448007884F81001B24801782046C9
:1057B000FFF758FE2046FFF7C1FE1AE094F81001EB
:1057C000AC490978884211D094F810112046FFF7AF
:1057D00049FEA848007884F81001A64801782046C0
:1057E000FFF731FE2046FFF7A9FE02E02046FFF753
:1057F000A5FE04E029462046FFF7CEFE00BF00BF0D
:1058000070BD70B504460D46A88818BBE88808BB73
:10581000A87800F07F064FF48970005D032804D15A
:1058200029462046FFF7B8FE18E04FF48A70065567
:1058300031462046FFF795F82046FFF77FFE26B158
:1058400002214FF48970015508E001214FF489705D
:10585000015503E029462046FFF79EFE70BDF8B5CE
:1058600004460E467088001208286CD2DFE800F06B
:105870006B0416226B6B6166A078D4F8EC150A688D
:10588000694690470546F088402804D04FF4897057
:10589000005D012801D10820009059E0A078D4F8DB
:1058A000E4158A6A69469047054602216970C4F882
:1058B000F0554DE0B078062834D2DFE800F0030B55
:1058C000131B232BA078D4F8EC154A68694690473F
:1058D00005462CE0A078D4F8EC158A686946904714
:1058E000054624E0A078D4F8EC15CA6869469047CC
:1058F00005461CE0A078D4F8EC150A696946904783
:10590000054614E0A078D4F8EC154A69694690473A
:1059100005460CE0A078D4F8EC158A6969469047F2
:10592000054604E031462046FFF736FEF8BD00BFCD
:105930000EE031462046FFF72FFEF7E731462046BE
:10594000FFF72AFEF2E731462046FFF725FEEDE796
:1059500000BFBDF8000088B1F08878B1F088BDF8CC
:105960000010884202DDBDF8000000E0F0880090E1
:10597000BDF8002029462046FFF794FD00BFD5E77B
:1059800070B505460C46002660780A2829D2DFE863
:1059900000F01923281E280A0528140F214628463E
:1059A000FFF75DFF22E021462846FFF72AFF1DE0B2
:1059B00021462846FFF7BFFE18E021462846FFF79C
:1059C00093FE13E021462846FFF769FE0EE02146CC
:1059D0002846FFF714FE09E021462846FFF7EBFDB5
:1059E00004E021462846FFF7D7FD00BF00BF304640
:1059F00070BD70B504460D4600264FF48970005DF9
:105A0000032814D1287901280CDCD4F8E4052946B0
:105A1000826820469047E88840B93EB92046FFF7A3
:105A20008DFD03E029462046FFF7B6FD04E0294638
:105A30002046FFF7B1FD00BF00BF304670BD2DE925
:105A4000F04105460E4600273479707800285FD073
:105A5000012833D003287DD14FF48970405D02289E
:105A60000AD0032823D10FE0309101203C9101207E
:105A700038910120409101202CB1802C03D0214687
:105A80002846FEF714FF17E0708830B92CB1802C3F
:105A900003D021462846FEF70AFFD5F8E405314633
:105AA0008268284690472846FFF748FD04E03146C3
:105AB0002846FFF771FD00BF00BF70E04FF489700A
:105AC000405D022802D003281BD107E02CB1802CB6
:105AD00003D021462846FEF7EAFE17E0708878B921
